{
  "contractName": "OracleIDDescriptions",
  "abi": [
    {
      "anonymous": false,
      "inputs": [
        {
          "indexed": false,
          "internalType": "uint256",
          "name": "_requestID",
          "type": "uint256"
        },
        {
          "indexed": false,
          "internalType": "int256",
          "name": "_adjFactor",
          "type": "int256"
        }
      ],
      "name": "AdjFactorMapped",
      "type": "event"
    },
    {
      "anonymous": false,
      "inputs": [
        {
          "indexed": false,
          "internalType": "uint256",
          "name": "_tellorStatus",
          "type": "uint256"
        },
        {
          "indexed": false,
          "internalType": "uint256",
          "name": "_status",
          "type": "uint256"
        }
      ],
      "name": "StatusMapped",
      "type": "event"
    },
    {
      "anonymous": false,
      "inputs": [
        {
          "indexed": false,
          "internalType": "uint256",
          "name": "_requestID",
          "type": "uint256"
        },
        {
          "indexed": false,
          "internalType": "bytes32",
          "name": "_id",
          "type": "bytes32"
        }
      ],
      "name": "TellorIdMappedToBytes",
      "type": "event"
    },
    {
      "constant": false,
      "inputs": [
        {
          "internalType": "uint256",
          "name": "_tellorId",
          "type": "uint256"
        },
        {
          "internalType": "int256",
          "name": "_adjFactor",
          "type": "int256"
        }
      ],
      "name": "defineTellorIdtoAdjFactor",
      "outputs": [],
      "payable": false,
      "stateMutability": "nonpayable",
      "type": "function"
    },
    {
      "constant": false,
      "inputs": [
        {
          "internalType": "uint256",
          "name": "_tellorStatus",
          "type": "uint256"
        },
        {
          "internalType": "uint256",
          "name": "_status",
          "type": "uint256"
        }
      ],
      "name": "defineTellorCodeToStatusCode",
      "outputs": [],
      "payable": false,
      "stateMutability": "nonpayable",
      "type": "function"
    },
    {
      "constant": false,
      "inputs": [
        {
          "internalType": "uint256",
          "name": "_requestID",
          "type": "uint256"
        },
        {
          "internalType": "bytes32",
          "name": "_id",
          "type": "bytes32"
        }
      ],
      "name": "defineTellorIdToBytesID",
      "outputs": [],
      "payable": false,
      "stateMutability": "nonpayable",
      "type": "function"
    },
    {
      "constant": true,
      "inputs": [
        {
          "internalType": "uint256",
          "name": "_status",
          "type": "uint256"
        }
      ],
      "name": "getTellorStatusFromStatus",
      "outputs": [
        {
          "internalType": "uint256",
          "name": "_tellorStatus",
          "type": "uint256"
        }
      ],
      "payable": false,
      "stateMutability": "view",
      "type": "function"
    },
    {
      "constant": true,
      "inputs": [
        {
          "internalType": "uint256",
          "name": "_tellorStatus",
          "type": "uint256"
        }
      ],
      "name": "getStatusFromTellorStatus",
      "outputs": [
        {
          "internalType": "uint256",
          "name": "_status",
          "type": "uint256"
        }
      ],
      "payable": false,
      "stateMutability": "view",
      "type": "function"
    },
    {
      "constant": true,
      "inputs": [
        {
          "internalType": "bytes32",
          "name": "_id",
          "type": "bytes32"
        }
      ],
      "name": "getTellorIdFromBytes",
      "outputs": [
        {
          "internalType": "uint256",
          "name": "_requestId",
          "type": "uint256"
        }
      ],
      "payable": false,
      "stateMutability": "view",
      "type": "function"
    },
    {
      "constant": true,
      "inputs": [
        {
          "internalType": "bytes32",
          "name": "_id",
          "type": "bytes32"
        }
      ],
      "name": "getGranularityAdjFactor",
      "outputs": [
        {
          "internalType": "int256",
          "name": "adjFactor",
          "type": "int256"
        }
      ],
      "payable": false,
      "stateMutability": "view",
      "type": "function"
    },
    {
      "constant": true,
      "inputs": [
        {
          "internalType": "uint256",
          "name": "_requestId",
          "type": "uint256"
        }
      ],
      "name": "getBytesFromTellorID",
      "outputs": [
        {
          "internalType": "bytes32",
          "name": "_id",
          "type": "bytes32"
        }
      ],
      "payable": false,
      "stateMutability": "view",
      "type": "function"
    }
  ],
  "bytecode": "0x608060405234801561001057600080fd5b5061063b806100206000396000f3fe608060405234801561001057600080fd5b50600436106100885760003560e01c806373b333181161005b57806373b3331814610181578063a21b0a5b146101c3578063afdc2c1414610205578063c4e9e9501461023d57610088565b80630a3ff7db1461008d57806344a63883146100cf5780635aa6fdd11461010757806367cfa3f81461013f575b600080fd5b6100b9600480360360208110156100a357600080fd5b810190808035906020019092919050505061027f565b6040518082815260200191505060405180910390f35b610105600480360360408110156100e557600080fd5b81019080803590602001909291908035906020019092919050505061029b565b005b61013d6004803603604081101561011d57600080fd5b810190808035906020019092919080359060200190929190505050610397565b005b61016b6004803603602081101561015557600080fd5b8101908080359060200190929190505050610493565b6040518082815260200191505060405180910390f35b6101ad6004803603602081101561019757600080fd5b81019080803590602001909291905050506104b0565b6040518082815260200191505060405180910390f35b6101ef600480360360208110156101d957600080fd5b81019080803590602001909291905050506104e8565b6040518082815260200191505060405180910390f35b61023b6004803603604081101561021b57600080fd5b810190808035906020019092919080359060200190929190505050610505565b005b6102696004803603602081101561025357600080fd5b81019080803590602001909291905050506105e9565b6040518082815260200191505060405180910390f35b6000806000838152602001908152602001600020549050919050565b6000600260008481526020019081526020016000205414610324576040517f08c379a000000000000000000000000000000000000000000000000000000000815260040180806020018281038252600b8152602001807f416c72656164792053657400000000000000000000000000000000000000000081525060200191505060405180910390fd5b8060026000848152602001908152602001600020819055508160036000838152602001908152602001600020819055507f4be3492cbedb6304ecd98cf1b46776c7e0e5c07b4a8114318bcd5ea08715ac1a8282604051808381526020018281526020019250505060405180910390a15050565b6000801b6000808481526020019081526020016000205414610421576040517f08c379a000000000000000000000000000000000000000000000000000000000815260040180806020018281038252600b8152602001807f416c72656164792053657400000000000000000000000000000000000000000081525060200191505060405180910390fd5b80600080848152602001908152602001600020819055508160016000838152602001908152602001600020819055507f6d663ee2b4cf058e66f9e5a74c6155bde58a5a717d01ccfb8befad11118c7db18282604051808381526020018281526020019250505060405180910390a15050565b600060026000838152602001908152602001600020549050919050565b600080600160008481526020019081526020016000205490506004600082815260200190815260200160002054915081915050919050565b600060036000838152602001908152602001600020549050919050565b600060046000848152602001908152602001600020541461058e576040517f08c379a000000000000000000000000000000000000000000000000000000000815260040180806020018281038252600b8152602001807f416c72656164792053657400000000000000000000000000000000000000000081525060200191505060405180910390fd5b8060046000848152602001908152602001600020819055507f4e40f4beec771602f74beb36f2284d5286db9b4aa133ac28ec5f96f8c7559f1e8282604051808381526020018281526020019250505060405180910390a15050565b60006001600083815260200190815260200160002054905091905056fea265627a7a72315820e3206f970e29b295b78bf2f767ee9fd7b05005ab8e1049918eda940946791af864736f6c63430005100032",
  "source": "pragma solidity ^0.5.0;\r\n\r\n/*\r\n * @title Price/numeric Pull Oracle mapping contract\r\n*/\r\n\r\ncontract OracleIDDescriptions {\r\n\r\n    /*Variables*/\r\n    mapping(uint=>bytes32) tellorIDtoBytesID;\r\n    mapping(bytes32 => uint) bytesIDtoTellorID;\r\n    mapping(uint => uint) tellorCodeToStatusCode;\r\n    mapping(uint => uint) statusCodeToTellorCode;\r\n    mapping(uint => int) tellorIdtoAdjFactor;\r\n\r\n    /*Events*/\r\n    event TellorIdMappedToBytes(uint _requestID, bytes32 _id);\r\n    event StatusMapped(uint _tellorStatus, uint _status);\r\n    event AdjFactorMapped(uint _requestID, int _adjFactor);\r\n\r\n\r\n    /**\r\n    * @dev This function allows the user to map the tellor's Id to it's _adjFactor and\r\n    * to match the standarized granularity\r\n    * @param _tellorId uint the tellor status\r\n    * @param _adjFactor is 1eN where N is the number of decimals to convert to ADO standard\r\n    */\r\n    function defineTellorIdtoAdjFactor(uint _tellorId, int _adjFactor) external{\r\n        require(tellorIdtoAdjFactor[_tellorId] == 0, \"Already Set\");\r\n        tellorIdtoAdjFactor[_tellorId] = _adjFactor;\r\n        emit AdjFactorMapped(_tellorId, _adjFactor);\r\n    }\r\n\r\n    /**\r\n    * @dev This function allows the user to map the tellor uint data status code to the standarized \r\n    * ADO uint status code such as null, retreived etc...\r\n    * @param _tellorStatus uint the tellor status\r\n    * @param _status the ADO standarized uint status\r\n    */\r\n    function defineTellorCodeToStatusCode(uint _tellorStatus, uint _status) external{\r\n        require(tellorCodeToStatusCode[_tellorStatus] == 0, \"Already Set\");\r\n        tellorCodeToStatusCode[_tellorStatus] = _status;\r\n        statusCodeToTellorCode[_status] = _tellorStatus;\r\n        emit StatusMapped(_tellorStatus, _status);\r\n    }\r\n\r\n    /**\r\n    * @dev Allows user to map the standarized bytes32 Id to a specific requestID from Tellor\r\n    * The dev should ensure the _requestId exists otherwise request the data on Tellor to get a requestId\r\n    * @param _requestID is the existing Tellor RequestID \r\n    * @param _id is the descption of the ID in bytes \r\n    */ \r\n    function defineTellorIdToBytesID(uint _requestID, bytes32 _id) external{\r\n        require(tellorIDtoBytesID[_requestID] == bytes32(0), \"Already Set\");\r\n        tellorIDtoBytesID[_requestID] = _id;\r\n        bytesIDtoTellorID[_id] = _requestID;\r\n        emit TellorIdMappedToBytes(_requestID,_id);\r\n    }\r\n\r\n    /**\r\n    * @dev Getter function for the uint Tellor status code from the specified uint ADO standarized status code\r\n    * @param _status the uint ADO standarized status\r\n    * @return _tellorStatus uint \r\n    */ \r\n    function getTellorStatusFromStatus(uint _status) public view returns(uint _tellorStatus){\r\n        return statusCodeToTellorCode[_status];\r\n    }\r\n\r\n    /**\r\n    * @dev Getter function of the uint ADO standarized status code from the specified Tellor uint status\r\n    * @param _tellorStatus uint \r\n    * @return _status the uint ADO standarized status\r\n    */ \r\n    function getStatusFromTellorStatus (uint _tellorStatus) public view returns(uint _status) {\r\n        return tellorCodeToStatusCode[_tellorStatus];\r\n    }\r\n    \r\n    /**\r\n    * @dev Getter function of the Tellor RequestID based on the specified bytes32 ADO standaraized _id\r\n    * @param _id is the bytes32 descriptor mapped to an existing Tellor's requestId\r\n    * @return _requestId is Tellor's requestID corresnpoding to _id\r\n    */ \r\n    function getTellorIdFromBytes(bytes32 _id) public view  returns(uint _requestId)  {\r\n       return bytesIDtoTellorID[_id];\r\n    }\r\n\r\n    /**\r\n    * @dev Getter function of the Tellor RequestID based on the specified bytes32 ADO standaraized _id\r\n    * @param _id is the bytes32 descriptor mapped to an existing Tellor's requestId\r\n    * @return _requestId is Tellor's requestID corresnpoding to _id\r\n    */ \r\n    function getGranularityAdjFactor(bytes32 _id) public view  returns(int adjFactor)  {\r\n       uint requestID = bytesIDtoTellorID[_id];\r\n       adjFactor = tellorIdtoAdjFactor[requestID];\r\n       return adjFactor;\r\n    }\r\n\r\n    /**\r\n    * @dev Getter function of the bytes32 ADO standaraized _id based on the specified Tellor RequestID \r\n    * @param _requestId is Tellor's requestID\r\n    * @return _id is the bytes32 descriptor mapped to an existing Tellor's requestId\r\n    */ \r\n    function getBytesFromTellorID(uint _requestId) public view returns(bytes32 _id) {\r\n        return tellorIDtoBytesID[_requestId];\r\n    }\r\n\r\n}",
  "sourcePath": "usingtellor\\contracts\\OracleIDDescriptions.sol",
  "compiler": {
    "name": "solc",
    "version": "0.5.16+commit.9c3226ce.Emscripten.clang"
  },
  "schemaVersion": "3.0.23",
  "updatedAt": "2020-05-18T15:25:40.183Z",
  "devdoc": {
    "methods": {
      "defineTellorCodeToStatusCode(uint256,uint256)": {
        "details": "This function allows the user to map the tellor uint data status code to the standarized  ADO uint status code such as null, retreived etc...",
        "params": {
          "_status": "the ADO standarized uint status",
          "_tellorStatus": "uint the tellor status"
        }
      },
      "defineTellorIdToBytesID(uint256,bytes32)": {
        "details": "Allows user to map the standarized bytes32 Id to a specific requestID from Tellor The dev should ensure the _requestId exists otherwise request the data on Tellor to get a requestId",
        "params": {
          "_id": "is the descption of the ID in bytes ",
          "_requestID": "is the existing Tellor RequestID "
        }
      },
      "defineTellorIdtoAdjFactor(uint256,int256)": {
        "details": "This function allows the user to map the tellor's Id to it's _adjFactor and to match the standarized granularity",
        "params": {
          "_adjFactor": "is 1eN where N is the number of decimals to convert to ADO standard",
          "_tellorId": "uint the tellor status"
        }
      },
      "getBytesFromTellorID(uint256)": {
        "details": "Getter function of the bytes32 ADO standaraized _id based on the specified Tellor RequestID ",
        "params": {
          "_requestId": "is Tellor's requestID"
        },
        "return": "_id is the bytes32 descriptor mapped to an existing Tellor's requestId"
      },
      "getGranularityAdjFactor(bytes32)": {
        "details": "Getter function of the Tellor RequestID based on the specified bytes32 ADO standaraized _id",
        "params": {
          "_id": "is the bytes32 descriptor mapped to an existing Tellor's requestId"
        },
        "return": "_requestId is Tellor's requestID corresnpoding to _id"
      },
      "getStatusFromTellorStatus(uint256)": {
        "details": "Getter function of the uint ADO standarized status code from the specified Tellor uint status",
        "params": {
          "_tellorStatus": "uint "
        },
        "return": "_status the uint ADO standarized status"
      },
      "getTellorIdFromBytes(bytes32)": {
        "details": "Getter function of the Tellor RequestID based on the specified bytes32 ADO standaraized _id",
        "params": {
          "_id": "is the bytes32 descriptor mapped to an existing Tellor's requestId"
        },
        "return": "_requestId is Tellor's requestID corresnpoding to _id"
      },
      "getTellorStatusFromStatus(uint256)": {
        "details": "Getter function for the uint Tellor status code from the specified uint ADO standarized status code",
        "params": {
          "_status": "the uint ADO standarized status"
        },
        "return": "_tellorStatus uint "
      }
    }
  },
  "userdoc": {
    "methods": {}
  }
}