{
  "contractName": "SampleUsingTellor",
  "abi": [
    {
      "inputs": [
        {
          "internalType": "uint256",
          "name": "_tellorID",
          "type": "uint256"
        },
        {
          "internalType": "address payable",
          "name": "_tellorAddress",
          "type": "address"
        },
        {
          "internalType": "uint256",
          "name": "_granularity",
          "type": "uint256"
        }
      ],
      "payable": false,
      "stateMutability": "nonpayable",
      "type": "constructor"
    },
    {
      "anonymous": false,
      "inputs": [
        {
          "indexed": false,
          "internalType": "address",
          "name": "_descriptorSet",
          "type": "address"
        }
      ],
      "name": "NewDescriptorSet",
      "type": "event"
    },
    {
      "constant": true,
      "inputs": [],
      "name": "currentValue",
      "outputs": [
        {
          "internalType": "uint256",
          "name": "",
          "type": "uint256"
        }
      ],
      "payable": false,
      "stateMutability": "view",
      "type": "function"
    },
    {
      "constant": true,
      "inputs": [
        {
          "internalType": "uint256",
          "name": "_requestId",
          "type": "uint256"
        }
      ],
      "name": "getCurrentValue",
      "outputs": [
        {
          "internalType": "bool",
          "name": "ifRetrieve",
          "type": "bool"
        },
        {
          "internalType": "uint256",
          "name": "value",
          "type": "uint256"
        },
        {
          "internalType": "uint256",
          "name": "_timestampRetrieved",
          "type": "uint256"
        }
      ],
      "payable": false,
      "stateMutability": "view",
      "type": "function"
    },
    {
      "constant": true,
      "inputs": [
        {
          "internalType": "uint256",
          "name": "_requestId",
          "type": "uint256"
        },
        {
          "internalType": "uint256",
          "name": "_timestamp",
          "type": "uint256"
        },
        {
          "internalType": "uint256",
          "name": "_limit",
          "type": "uint256"
        },
        {
          "internalType": "uint256",
          "name": "_offset",
          "type": "uint256"
        }
      ],
      "name": "getDataBefore",
      "outputs": [
        {
          "internalType": "bool",
          "name": "_ifRetrieve",
          "type": "bool"
        },
        {
          "internalType": "uint256",
          "name": "_value",
          "type": "uint256"
        },
        {
          "internalType": "uint256",
          "name": "_timestampRetrieved",
          "type": "uint256"
        }
      ],
      "payable": false,
      "stateMutability": "view",
      "type": "function"
    },
    {
      "constant": true,
      "inputs": [],
      "name": "granularity",
      "outputs": [
        {
          "internalType": "uint256",
          "name": "",
          "type": "uint256"
        }
      ],
      "payable": false,
      "stateMutability": "view",
      "type": "function"
    },
    {
      "constant": true,
      "inputs": [],
      "name": "oracleIDDescriptionsAddress",
      "outputs": [
        {
          "internalType": "address",
          "name": "",
          "type": "address"
        }
      ],
      "payable": false,
      "stateMutability": "view",
      "type": "function"
    },
    {
      "constant": true,
      "inputs": [],
      "name": "qualifiedValue",
      "outputs": [
        {
          "internalType": "uint256",
          "name": "",
          "type": "uint256"
        }
      ],
      "payable": false,
      "stateMutability": "view",
      "type": "function"
    },
    {
      "constant": false,
      "inputs": [
        {
          "internalType": "address",
          "name": "_oracleDescriptors",
          "type": "address"
        }
      ],
      "name": "setOracleIDDescriptors",
      "outputs": [],
      "payable": false,
      "stateMutability": "nonpayable",
      "type": "function"
    },
    {
      "constant": true,
      "inputs": [],
      "name": "tellorID",
      "outputs": [
        {
          "internalType": "uint256",
          "name": "",
          "type": "uint256"
        }
      ],
      "payable": false,
      "stateMutability": "view",
      "type": "function"
    },
    {
      "constant": true,
      "inputs": [],
      "name": "tellorStorageAddress",
      "outputs": [
        {
          "internalType": "address payable",
          "name": "",
          "type": "address"
        }
      ],
      "payable": false,
      "stateMutability": "view",
      "type": "function"
    },
    {
      "constant": true,
      "inputs": [
        {
          "internalType": "bytes32",
          "name": "_bytesId",
          "type": "bytes32"
        }
      ],
      "name": "valueFor",
      "outputs": [
        {
          "internalType": "int256",
          "name": "value",
          "type": "int256"
        },
        {
          "internalType": "uint256",
          "name": "timestamp",
          "type": "uint256"
        },
        {
          "internalType": "uint256",
          "name": "status",
          "type": "uint256"
        }
      ],
      "payable": false,
      "stateMutability": "view",
      "type": "function"
    },
    {
      "constant": false,
      "inputs": [
        {
          "internalType": "uint256",
          "name": "_offset",
          "type": "uint256"
        },
        {
          "internalType": "uint256",
          "name": "_limit",
          "type": "uint256"
        }
      ],
      "name": "updateValues",
      "outputs": [],
      "payable": false,
      "stateMutability": "nonpayable",
      "type": "function"
    }
  ],
  "bytecode": "0x608060405234801561001057600080fd5b50604051610ebc380380610ebc8339818101604052606081101561003357600080fd5b8101908080519060200190929190805190602001909291908051906020019092919050505081806000806101000a81548173ffffffffffffffffffffffffffffffffffffffff021916908373ffffffffffffffffffffffffffffffffffffffff1602179055506000809054906101000a900473ffffffffffffffffffffffffffffffffffffffff16600260006101000a81548173ffffffffffffffffffffffffffffffffffffffff021916908373ffffffffffffffffffffffffffffffffffffffff160217905550508260048190555080600781905550505050610da08061011c6000396000f3fe608060405234801561001057600080fd5b50600436106100a95760003560e01c8063698996f811610071578063698996f8146101c0578063a8020973146101de578063bb97f31d14610228578063d3a65e311461026c578063ddb2d6c51461028a578063f78eea83146102fc576100a9565b80630ae53885146100ae5780633fcad964146100e6578063526366b41461013a578063556f0dc714610184578063641348ac146101a2575b600080fd5b6100e4600480360360408110156100c457600080fd5b81019080803590602001909291908035906020019092919050505061034c565b005b610112600480360360208110156100fc57600080fd5b81019080803590602001909291905050506103c0565b6040518084151515158152602001838152602001828152602001935050505060405180910390f35b6101426103e0565b604051808273ffffffffffffffffffffffffffffffffffffffff1673ffffffffffffffffffffffffffffffffffffffff16815260200191505060405180910390f35b61018c610406565b6040518082815260200191505060405180910390f35b6101aa61040c565b6040518082815260200191505060405180910390f35b6101c8610412565b6040518082815260200191505060405180910390f35b6101e6610418565b604051808273ffffffffffffffffffffffffffffffffffffffff1673ffffffffffffffffffffffffffffffffffffffff16815260200191505060405180910390f35b61026a6004803603602081101561023e57600080fd5b81019080803573ffffffffffffffffffffffffffffffffffffffff16906020019092919050505061043d565b005b6102746105e9565b6040518082815260200191505060405180910390f35b6102d4600480360360808110156102a057600080fd5b81019080803590602001909291908035906020019092919080359060200190929190803590602001909291905050506105ef565b6040518084151515158152602001838152602001828152602001935050505060405180910390f35b6103286004803603602081101561031257600080fd5b8101908080359060200190929190505050610982565b60405180848152602001838152602001828152602001935050505060405180910390f35b6000806000610363600454610e10420386886105ef565b809450819350829550505050821561038857600754818161038057fe5b046005819055505b6103936004546103c0565b600660008296508391905055829550505050600754600654816103b257fe5b046006819055505050505050565b60008060006103d38442600160006105ef565b9250925092509193909250565b600160009054906101000a900473ffffffffffffffffffffffffffffffffffffffff1681565b60075481565b60045481565b60065481565b6000809054906101000a900473ffffffffffffffffffffffffffffffffffffffff1681565b600073ffffffffffffffffffffffffffffffffffffffff16600160009054906101000a900473ffffffffffffffffffffffffffffffffffffffff1673ffffffffffffffffffffffffffffffffffffffff1614610501576040517f08c379a000000000000000000000000000000000000000000000000000000000815260040180806020018281038252600b8152602001807f416c72656164792053657400000000000000000000000000000000000000000081525060200191505060405180910390fd5b80600160006101000a81548173ffffffffffffffffffffffffffffffffffffffff021916908373ffffffffffffffffffffffffffffffffffffffff16021790555080600360006101000a81548173ffffffffffffffffffffffffffffffffffffffff021916908373ffffffffffffffffffffffffffffffffffffffff1602179055507f5c6c85f31e475f047482022539bfe2a3941c15e582053b7420f22e5e8cc5d7f681604051808273ffffffffffffffffffffffffffffffffffffffff1673ffffffffffffffffffffffffffffffffffffffff16815260200191505060405180910390a150565b60055481565b600080600080600260009054906101000a900473ffffffffffffffffffffffffffffffffffffffff1673ffffffffffffffffffffffffffffffffffffffff166346eee1c4896040518263ffffffff1660e01b81526004018082815260200191505060206040518083038186803b15801561066857600080fd5b505afa15801561067c573d6000803e3d6000fd5b505050506040513d602081101561069257600080fd5b81019080805190602001909291905050509050600081111561096557600085820390505b8686830301811015610963576000600260009054906101000a900473ffffffffffffffffffffffffffffffffffffffff1673ffffffffffffffffffffffffffffffffffffffff166377fbb6638b600185036040518363ffffffff1660e01b8152600401808381526020018281526020019250505060206040518083038186803b15801561074257600080fd5b505afa158015610756573d6000803e3d6000fd5b505050506040513d602081101561076c57600080fd5b8101908080519060200190929190505050905060008511801561078e57508881115b156107a55760018585955095509550505050610978565b6000811180156107b55750888111155b801561087a575060001515600260009054906101000a900473ffffffffffffffffffffffffffffffffffffffff1673ffffffffffffffffffffffffffffffffffffffff16633df0777b8c846040518363ffffffff1660e01b8152600401808381526020018281526020019250505060206040518083038186803b15801561083b57600080fd5b505afa15801561084f573d6000803e3d6000fd5b505050506040513d602081101561086557600080fd5b81019080805190602001909291905050501515145b1561095557600260009054906101000a900473ffffffffffffffffffffffffffffffffffffffff1673ffffffffffffffffffffffffffffffffffffffff166393fa49158b836040518363ffffffff1660e01b8152600401808381526020018281526020019250505060206040518083038186803b1580156108fa57600080fd5b505afa15801561090e573d6000803e3d6000fd5b505050506040513d602081101561092457600080fd5b81019080805190602001909291905050509450809350828214156109545760018585955095509550505050610978565b5b5080806001019150506106b6565b505b6000806000819150809050935093509350505b9450945094915050565b600080600080600360009054906101000a900473ffffffffffffffffffffffffffffffffffffffff1673ffffffffffffffffffffffffffffffffffffffff1663c4e9e950866040518263ffffffff1660e01b81526004018082815260200191505060206040518083038186803b1580156109fb57600080fd5b505afa158015610a0f573d6000803e3d6000fd5b505050506040513d6020811015610a2557600080fd5b810190808051906020019092919050505090506000600360009054906101000a900473ffffffffffffffffffffffffffffffffffffffff1673ffffffffffffffffffffffffffffffffffffffff166373b33318876040518263ffffffff1660e01b81526004018082815260200191505060206040518083038186803b158015610aad57600080fd5b505afa158015610ac1573d6000803e3d6000fd5b505050506040513d6020811015610ad757600080fd5b810190808051906020019092919050505090506000821115610ca3576000806000610b068542600160006105ef565b8093508194508295505050508215610bdb5783820281600360009054906101000a900473ffffffffffffffffffffffffffffffffffffffff1673ffffffffffffffffffffffffffffffffffffffff166367cfa3f860016040518263ffffffff1660e01b81526004018082815260200191505060206040518083038186803b158015610b9057600080fd5b505afa158015610ba4573d6000803e3d6000fd5b505050506040513d6020811015610bba57600080fd5b81019080805190602001909291905050509750975097505050505050610d64565b600080600360009054906101000a900473ffffffffffffffffffffffffffffffffffffffff1673ffffffffffffffffffffffffffffffffffffffff166367cfa3f860026040518263ffffffff1660e01b81526004018082815260200191505060206040518083038186803b158015610c5257600080fd5b505afa158015610c66573d6000803e3d6000fd5b505050506040513d6020811015610c7c57600080fd5b81019080805190602001909291905050508292508191509750975097505050505050610d64565b600080600360009054906101000a900473ffffffffffffffffffffffffffffffffffffffff1673ffffffffffffffffffffffffffffffffffffffff166367cfa3f860006040518263ffffffff1660e01b81526004018082815260200191505060206040518083038186803b158015610d1a57600080fd5b505afa158015610d2e573d6000803e3d6000fd5b505050506040513d6020811015610d4457600080fd5b810190808051906020019092919050505082925081915094509450945050505b919390925056fea265627a7a72315820a060cc55940b115d35590f8d78b78f0a77c3ef2b83fffa40e770cbaa62f3fa5d64736f6c63430005100032",
  "source": "pragma solidity >=0.4.21 <0.7.0;\r\nimport \"usingtellor/contracts/UsingTellor.sol\";\r\n// import \"usingtellor/contracts/libraries/TellorLibrary.sol\";\r\n// import \"usingtellor/contracts/testContracts/Tellor.sol\";\r\n\r\ncontract SampleUsingTellor is UsingTellor {\r\n  uint public tellorID;\r\n  uint public qualifiedValue;\r\n  uint public currentValue;\r\n  uint public granularity;\r\n\r\n  constructor(uint _tellorID, address payable _tellorAddress,uint _granularity) UsingTellor(_tellorAddress) public {\r\n    tellorID = _tellorID;\r\n    granularity = _granularity;\r\n  }\r\n\r\n  function updateValues(uint _offset, uint _limit) external {\r\n    bool _didGet;\r\n    uint _timestamp;\r\n    uint _value;\r\n\r\n    (_didGet,_value,_timestamp) = getDataBefore(tellorID, now - 1 hours,_limit, _offset);\r\n    if(_didGet){\r\n      qualifiedValue = _value/granularity;\r\n    }\r\n\r\n    (_didGet,currentValue,_timestamp) = getCurrentValue(tellorID);\r\n    currentValue = currentValue / granularity;\r\n  }\r\n\r\n}\r\n",
  "sourcePath": "C:\\company\\code\\sampleUsingTellor\\contracts\\SampleUsingTellor.sol",
  "compiler": {
    "name": "solc",
    "version": "0.5.16+commit.9c3226ce.Emscripten.clang"
  },
  "schemaVersion": "3.0.23",
  "updatedAt": "2020-07-08T18:39:34.022Z",
  "devdoc": {
    "methods": {
      "getCurrentValue(uint256)": {
        "details": "Allows the user to get the latest value for the requestId specified",
        "params": {
          "_requestId": "is the requestId to look up the value for"
        },
        "return": "bool true if it is able to retreive a value, the value, and the value's timestamp"
      },
      "getDataBefore(uint256,uint256,uint256,uint256)": {
        "details": "Allows the user to get the first value for the requestId before the specified timestamp",
        "params": {
          "_limit": "a limit on the number of values to look at",
          "_offset": "the number of values to go back before looking for data values",
          "_requestId": "is the requestId to look up the value for",
          "_timestamp": "before which to search for first verified value"
        },
        "return": "bool true if it is able to retreive a value, the value, and the value's timestamp"
      },
      "valueFor(bytes32)": {
        "details": "Allows the user to get the latest value for the requestId specified using the ADO specification for the standard inteface for price oracles",
        "params": {
          "_bytesId": "is the ADO standarized bytes32 price/key value pair identifier"
        },
        "return": "the timestamp, outcome or value/ and the status code (for retreived, null, etc...)"
      }
    }
  },
  "userdoc": {
    "methods": {}
  }
}