{
  "contractName": "UsingTellor",
  "abi": [
    {
      "inputs": [
        {
          "internalType": "address payable",
          "name": "_storage",
          "type": "address"
        }
      ],
      "payable": false,
      "stateMutability": "nonpayable",
      "type": "constructor"
    },
    {
      "anonymous": false,
      "inputs": [
        {
          "indexed": false,
          "internalType": "address",
          "name": "_descriptorSet",
          "type": "address"
        }
      ],
      "name": "NewDescriptorSet",
      "type": "event"
    },
    {
      "constant": true,
      "inputs": [],
      "name": "oracleIDDescriptionsAddress",
      "outputs": [
        {
          "internalType": "address",
          "name": "",
          "type": "address"
        }
      ],
      "payable": false,
      "stateMutability": "view",
      "type": "function"
    },
    {
      "constant": true,
      "inputs": [],
      "name": "tellorStorageAddress",
      "outputs": [
        {
          "internalType": "address payable",
          "name": "",
          "type": "address"
        }
      ],
      "payable": false,
      "stateMutability": "view",
      "type": "function"
    },
    {
      "constant": false,
      "inputs": [
        {
          "internalType": "address",
          "name": "_oracleDescriptors",
          "type": "address"
        }
      ],
      "name": "setOracleIDDescriptors",
      "outputs": [],
      "payable": false,
      "stateMutability": "nonpayable",
      "type": "function"
    },
    {
      "constant": true,
      "inputs": [
        {
          "internalType": "uint256",
          "name": "_requestId",
          "type": "uint256"
        }
      ],
      "name": "getCurrentValue",
      "outputs": [
        {
          "internalType": "bool",
          "name": "ifRetrieve",
          "type": "bool"
        },
        {
          "internalType": "uint256",
          "name": "value",
          "type": "uint256"
        },
        {
          "internalType": "uint256",
          "name": "_timestampRetrieved",
          "type": "uint256"
        }
      ],
      "payable": false,
      "stateMutability": "view",
      "type": "function"
    },
    {
      "constant": true,
      "inputs": [
        {
          "internalType": "bytes32",
          "name": "_bytesId",
          "type": "bytes32"
        }
      ],
      "name": "valueFor",
      "outputs": [
        {
          "internalType": "int256",
          "name": "value",
          "type": "int256"
        },
        {
          "internalType": "uint256",
          "name": "timestamp",
          "type": "uint256"
        },
        {
          "internalType": "uint256",
          "name": "status",
          "type": "uint256"
        }
      ],
      "payable": false,
      "stateMutability": "view",
      "type": "function"
    },
    {
      "constant": true,
      "inputs": [
        {
          "internalType": "uint256",
          "name": "_requestId",
          "type": "uint256"
        },
        {
          "internalType": "uint256",
          "name": "_timestamp",
          "type": "uint256"
        }
      ],
      "name": "getDataBefore",
      "outputs": [
        {
          "internalType": "bool",
          "name": "_ifRetrieve",
          "type": "bool"
        },
        {
          "internalType": "uint256",
          "name": "_value",
          "type": "uint256"
        },
        {
          "internalType": "uint256",
          "name": "_timestampRetrieved",
          "type": "uint256"
        }
      ],
      "payable": false,
      "stateMutability": "view",
      "type": "function"
    }
  ],
  "bytecode": "0x608060405234801561001057600080fd5b50604051610cb8380380610cb88339818101604052602081101561003357600080fd5b8101908080519060200190929190505050806000806101000a81548173ffffffffffffffffffffffffffffffffffffffff021916908373ffffffffffffffffffffffffffffffffffffffff1602179055506000809054906101000a900473ffffffffffffffffffffffffffffffffffffffff16600260006101000a81548173ffffffffffffffffffffffffffffffffffffffff021916908373ffffffffffffffffffffffffffffffffffffffff16021790555050610bc2806100f66000396000f3fe608060405234801561001057600080fd5b50600436106100625760003560e01c80633fcad96414610067578063526366b4146100bb57806366b4461114610105578063a802097314610163578063bb97f31d146101ad578063f78eea83146101f1575b600080fd5b6100936004803603602081101561007d57600080fd5b8101908080359060200190929190505050610241565b6040518084151515158152602001838152602001828152602001935050505060405180910390f35b6100c361025d565b604051808273ffffffffffffffffffffffffffffffffffffffff1673ffffffffffffffffffffffffffffffffffffffff16815260200191505060405180910390f35b61013b6004803603604081101561011b57600080fd5b810190808035906020019092919080359060200190929190505050610283565b6040518084151515158152602001838152602001828152602001935050505060405180910390f35b61016b6105d7565b604051808273ffffffffffffffffffffffffffffffffffffffff1673ffffffffffffffffffffffffffffffffffffffff16815260200191505060405180910390f35b6101ef600480360360208110156101c357600080fd5b81019080803573ffffffffffffffffffffffffffffffffffffffff1690602001909291905050506105fc565b005b61021d6004803603602081101561020757600080fd5b81019080803590602001909291905050506107a8565b60405180848152602001838152602001828152602001935050505060405180910390f35b60008060006102508442610283565b9250925092509193909250565b600160009054906101000a900473ffffffffffffffffffffffffffffffffffffffff1681565b600080600080600260009054906101000a900473ffffffffffffffffffffffffffffffffffffffff1673ffffffffffffffffffffffffffffffffffffffff166346eee1c4876040518263ffffffff1660e01b81526004018082815260200191505060206040518083038186803b1580156102fc57600080fd5b505afa158015610310573d6000803e3d6000fd5b505050506040513d602081101561032657600080fd5b8101908080519060200190929190505050905060008111156105bd576000600190505b8181116104ed576000600260009054906101000a900473ffffffffffffffffffffffffffffffffffffffff1673ffffffffffffffffffffffffffffffffffffffff166377fbb66389600185036040518363ffffffff1660e01b8152600401808381526020018281526020019250505060206040518083038186803b1580156103d057600080fd5b505afa1580156103e4573d6000803e3d6000fd5b505050506040513d60208110156103fa57600080fd5b810190808051906020019092919050505090508681111580156104d6575060001515600260009054906101000a900473ffffffffffffffffffffffffffffffffffffffff1673ffffffffffffffffffffffffffffffffffffffff16633df0777b8a846040518363ffffffff1660e01b8152600401808381526020018281526020019250505060206040518083038186803b15801561049757600080fd5b505afa1580156104ab573d6000803e3d6000fd5b505050506040513d60208110156104c157600080fd5b81019080805190602001909291905050501515145b156104df578093505b508080600101915050610349565b5060008211156105bc576001600260009054906101000a900473ffffffffffffffffffffffffffffffffffffffff1673ffffffffffffffffffffffffffffffffffffffff166393fa491588856040518363ffffffff1660e01b8152600401808381526020018281526020019250505060206040518083038186803b15801561057457600080fd5b505afa158015610588573d6000803e3d6000fd5b505050506040513d602081101561059e57600080fd5b810190808051906020019092919050505083935093509350506105d0565b5b6000806000819150809050935093509350505b9250925092565b6000809054906101000a900473ffffffffffffffffffffffffffffffffffffffff1681565b600073ffffffffffffffffffffffffffffffffffffffff16600160009054906101000a900473ffffffffffffffffffffffffffffffffffffffff1673ffffffffffffffffffffffffffffffffffffffff16146106c0576040517f08c379a000000000000000000000000000000000000000000000000000000000815260040180806020018281038252600b8152602001807f416c72656164792053657400000000000000000000000000000000000000000081525060200191505060405180910390fd5b80600160006101000a81548173ffffffffffffffffffffffffffffffffffffffff021916908373ffffffffffffffffffffffffffffffffffffffff16021790555080600360006101000a81548173ffffffffffffffffffffffffffffffffffffffff021916908373ffffffffffffffffffffffffffffffffffffffff1602179055507f5c6c85f31e475f047482022539bfe2a3941c15e582053b7420f22e5e8cc5d7f681604051808273ffffffffffffffffffffffffffffffffffffffff1673ffffffffffffffffffffffffffffffffffffffff16815260200191505060405180910390a150565b600080600080600360009054906101000a900473ffffffffffffffffffffffffffffffffffffffff1673ffffffffffffffffffffffffffffffffffffffff1663c4e9e950866040518263ffffffff1660e01b81526004018082815260200191505060206040518083038186803b15801561082157600080fd5b505afa158015610835573d6000803e3d6000fd5b505050506040513d602081101561084b57600080fd5b810190808051906020019092919050505090506000600360009054906101000a900473ffffffffffffffffffffffffffffffffffffffff1673ffffffffffffffffffffffffffffffffffffffff166373b33318876040518263ffffffff1660e01b81526004018082815260200191505060206040518083038186803b1580156108d357600080fd5b505afa1580156108e7573d6000803e3d6000fd5b505050506040513d60208110156108fd57600080fd5b810190808051906020019092919050505090506000821115610ac55760008060006109288542610283565b80935081945082955050505082156109fd5783820281600360009054906101000a900473ffffffffffffffffffffffffffffffffffffffff1673ffffffffffffffffffffffffffffffffffffffff166367cfa3f860016040518263ffffffff1660e01b81526004018082815260200191505060206040518083038186803b1580156109b257600080fd5b505afa1580156109c6573d6000803e3d6000fd5b505050506040513d60208110156109dc57600080fd5b81019080805190602001909291905050509750975097505050505050610b86565b600080600360009054906101000a900473ffffffffffffffffffffffffffffffffffffffff1673ffffffffffffffffffffffffffffffffffffffff166367cfa3f860026040518263ffffffff1660e01b81526004018082815260200191505060206040518083038186803b158015610a7457600080fd5b505afa158015610a88573d6000803e3d6000fd5b505050506040513d6020811015610a9e57600080fd5b81019080805190602001909291905050508292508191509750975097505050505050610b86565b600080600360009054906101000a900473ffffffffffffffffffffffffffffffffffffffff1673ffffffffffffffffffffffffffffffffffffffff166367cfa3f860006040518263ffffffff1660e01b81526004018082815260200191505060206040518083038186803b158015610b3c57600080fd5b505afa158015610b50573d6000803e3d6000fd5b505050506040513d6020811015610b6657600080fd5b810190808051906020019092919050505082925081915094509450945050505b919390925056fea265627a7a72315820a2b121e6212785d2f2dda3f84223256753fd1045edf687fc388108557ddbee7a64736f6c63430005100032",
  "source": "pragma solidity ^0.5.0;\r\n\r\nimport \"../contracts/testContracts/TellorMaster.sol\";\r\nimport \"./OracleIDDescriptions.sol\";\r\nimport \"../contracts/interfaces/EIP2362Interface.sol\";\r\n\r\n/**\r\n* @title UserContract\r\n* This contracts creates for easy integration to the Tellor System\r\n* by allowing smart contracts to read data off Tellor\r\n*/\r\ncontract UsingTellor is EIP2362Interface{\r\n    address payable public tellorStorageAddress;\r\n    address public oracleIDDescriptionsAddress;\r\n    TellorMaster _tellorm;\r\n    OracleIDDescriptions descriptions;\r\n\r\n    event NewDescriptorSet(address _descriptorSet);\r\n\r\n    /*Constructor*/\r\n    /**\r\n    * @dev the constructor sets the storage address and owner\r\n    * @param _storage is the TellorMaster address\r\n    */\r\n    constructor(address payable _storage) public {\r\n        tellorStorageAddress = _storage;\r\n        _tellorm = TellorMaster(tellorStorageAddress);\r\n    }\r\n\r\n    /*Functions*/\r\n    /*\r\n    * @dev Allows the owner to set the address for the oracleID descriptors\r\n    * used by the ADO members for price key value pairs standarization \r\n    * _oracleDescriptors is the address for the OracleIDDescriptions contract\r\n    */\r\n    function setOracleIDDescriptors(address _oracleDescriptors) external {\r\n        require(oracleIDDescriptionsAddress == address(0), \"Already Set\");\r\n        oracleIDDescriptionsAddress = _oracleDescriptors;\r\n        descriptions = OracleIDDescriptions(_oracleDescriptors);\r\n        emit NewDescriptorSet(_oracleDescriptors);\r\n    }\r\n\r\n    /**\r\n    * @dev Allows the user to get the latest value for the requestId specified\r\n    * @param _requestId is the requestId to look up the value for\r\n    * @return bool true if it is able to retreive a value, the value, and the value's timestamp\r\n    */\r\n    function getCurrentValue(uint256 _requestId) public view returns (bool ifRetrieve, uint256 value, uint256 _timestampRetrieved) {\r\n        return getDataBefore(_requestId,now);\r\n    }\r\n\r\n    /**\r\n    * @dev Allows the user to get the latest value for the requestId specified using the \r\n    * ADO specification for the standard inteface for price oracles\r\n    * @param _bytesId is the ADO standarized bytes32 price/key value pair identifier\r\n    * @return the timestamp, outcome or value/ and the status code (for retreived, null, etc...)\r\n    */\r\n    function valueFor(bytes32 _bytesId) view external returns (int value, uint256 timestamp, uint status) {\r\n        uint _id = descriptions.getTellorIdFromBytes(_bytesId);\r\n        int n = descriptions.getGranularityAdjFactor(_bytesId);\r\n        if (_id > 0){\r\n            bool _didGet;\r\n            uint256 _returnedValue;\r\n            uint256 _timestampRetrieved;\r\n            (_didGet,_returnedValue,_timestampRetrieved) = getDataBefore(_id,now);\r\n            if(_didGet){\r\n                return (int(_returnedValue)*n,_timestampRetrieved, descriptions.getStatusFromTellorStatus(1));\r\n            }\r\n            else{\r\n                return (0,0,descriptions.getStatusFromTellorStatus(2));\r\n            }\r\n        }\r\n        return (0, 0, descriptions.getStatusFromTellorStatus(0));\r\n    }\r\n\r\n    /**\r\n    * @dev Allows the user to get the first value for the requestId after the specified timestamp\r\n    * @param _requestId is the requestId to look up the value for\r\n    * @param _timestamp after which to search for first verified value\r\n    * @return bool true if it is able to retreive a value, the value, and the value's timestamp\r\n    */\r\n    function getDataBefore(uint256 _requestId, uint256 _timestamp)\r\n        public\r\n        view\r\n        returns (bool _ifRetrieve, uint256 _value, uint256 _timestampRetrieved)\r\n    {\r\n        uint256 _count = _tellorm.getNewValueCountbyRequestId(_requestId);\r\n        if (_count > 0) {\r\n            for (uint256 i = 1; i <= _count; i++) {\r\n                uint256 _time = _tellorm.getTimestampbyRequestIDandIndex(_requestId, i - 1);\r\n                if (_time <= _timestamp && _tellorm.isInDispute(_requestId,_time) == false) {\r\n                    _timestampRetrieved = _time;\r\n                }\r\n            }\r\n            if (_timestampRetrieved > 0) {\r\n                return (true, _tellorm.retrieveData(_requestId, _timestampRetrieved), _timestampRetrieved);\r\n            }\r\n        }\r\n        return (false, 0, 0);\r\n    }\r\n}\r\n",
  "sourcePath": "usingtellor/contracts/UsingTellor.sol",
  "compiler": {
    "name": "solc",
    "version": "0.5.16+commit.9c3226ce.Emscripten.clang"
  },
  "schemaVersion": "3.1.0",
  "updatedAt": "2020-05-14T15:21:24.929Z",
  "devdoc": {
    "methods": {
      "constructor": {
        "details": "the constructor sets the storage address and owner",
        "params": {
          "_storage": "is the TellorMaster address"
        }
      },
      "getCurrentValue(uint256)": {
        "details": "Allows the user to get the latest value for the requestId specified",
        "params": {
          "_requestId": "is the requestId to look up the value for"
        },
        "return": "bool true if it is able to retreive a value, the value, and the value's timestamp"
      },
      "getDataBefore(uint256,uint256)": {
        "details": "Allows the user to get the first value for the requestId after the specified timestamp",
        "params": {
          "_requestId": "is the requestId to look up the value for",
          "_timestamp": "after which to search for first verified value"
        },
        "return": "bool true if it is able to retreive a value, the value, and the value's timestamp"
      },
      "valueFor(bytes32)": {
        "details": "Allows the user to get the latest value for the requestId specified using the  ADO specification for the standard inteface for price oracles",
        "params": {
          "_bytesId": "is the ADO standarized bytes32 price/key value pair identifier"
        },
        "return": "the timestamp, outcome or value/ and the status code (for retreived, null, etc...)"
      }
    },
    "title": "UserContract This contracts creates for easy integration to the Tellor System by allowing smart contracts to read data off Tellor"
  },
  "userdoc": {
    "methods": {}
  }
}