{
  "contractName": "UsingTellor",
  "abi": [
    {
      "constant": true,
      "inputs": [],
      "name": "oracleIDDescriptionsAddress",
      "outputs": [
        {
          "name": "",
          "type": "address"
        }
      ],
      "payable": false,
      "stateMutability": "view",
      "type": "function"
    },
    {
      "constant": true,
      "inputs": [],
      "name": "tellorStorageAddress",
      "outputs": [
        {
          "name": "",
          "type": "address"
        }
      ],
      "payable": false,
      "stateMutability": "view",
      "type": "function"
    },
    {
      "inputs": [
        {
          "name": "_storage",
          "type": "address"
        }
      ],
      "payable": false,
      "stateMutability": "nonpayable",
      "type": "constructor"
    },
    {
      "anonymous": false,
      "inputs": [
        {
          "indexed": false,
          "name": "_descriptorSet",
          "type": "address"
        }
      ],
      "name": "NewDescriptorSet",
      "type": "event"
    },
    {
      "constant": false,
      "inputs": [
        {
          "name": "_oracleDescriptors",
          "type": "address"
        }
      ],
      "name": "setOracleIDDescriptors",
      "outputs": [],
      "payable": false,
      "stateMutability": "nonpayable",
      "type": "function"
    },
    {
      "constant": true,
      "inputs": [
        {
          "name": "_requestId",
          "type": "uint256"
        }
      ],
      "name": "getCurrentValue",
      "outputs": [
        {
          "name": "ifRetrieve",
          "type": "bool"
        },
        {
          "name": "value",
          "type": "uint256"
        },
        {
          "name": "_timestampRetrieved",
          "type": "uint256"
        }
      ],
      "payable": false,
      "stateMutability": "view",
      "type": "function"
    },
    {
      "constant": true,
      "inputs": [
        {
          "name": "_bytesId",
          "type": "bytes32"
        }
      ],
      "name": "valueFor",
      "outputs": [
        {
          "name": "value",
          "type": "int256"
        },
        {
          "name": "timestamp",
          "type": "uint256"
        },
        {
          "name": "status",
          "type": "uint256"
        }
      ],
      "payable": false,
      "stateMutability": "view",
      "type": "function"
    },
    {
      "constant": true,
      "inputs": [
        {
          "name": "_requestId",
          "type": "uint256"
        },
        {
          "name": "_timestamp",
          "type": "uint256"
        },
        {
          "name": "_limit",
          "type": "uint256"
        },
        {
          "name": "_offset",
          "type": "uint256"
        }
      ],
      "name": "getDataBefore",
      "outputs": [
        {
          "name": "_ifRetrieve",
          "type": "bool"
        },
        {
          "name": "_value",
          "type": "uint256"
        },
        {
          "name": "_timestampRetrieved",
          "type": "uint256"
        }
      ],
      "payable": false,
      "stateMutability": "view",
      "type": "function"
    }
  ],
  "bytecode": "0x608060405234801561001057600080fd5b50604051602080610d078339810180604052602081101561003057600080fd5b8101908080519060200190929190505050806000806101000a81548173ffffffffffffffffffffffffffffffffffffffff021916908373ffffffffffffffffffffffffffffffffffffffff1602179055506000809054906101000a900473ffffffffffffffffffffffffffffffffffffffff16600260006101000a81548173ffffffffffffffffffffffffffffffffffffffff021916908373ffffffffffffffffffffffffffffffffffffffff16021790555050610c14806100f36000396000f3fe608060405234801561001057600080fd5b50600436106100625760003560e01c80633fcad96414610067578063526366b4146100bb578063a802097314610105578063bb97f31d1461014f578063ddb2d6c514610193578063f78eea8314610205575b600080fd5b6100936004803603602081101561007d57600080fd5b8101908080359060200190929190505050610255565b6040518084151515158152602001838152602001828152602001935050505060405180910390f35b6100c3610275565b604051808273ffffffffffffffffffffffffffffffffffffffff1673ffffffffffffffffffffffffffffffffffffffff16815260200191505060405180910390f35b61010d61029b565b604051808273ffffffffffffffffffffffffffffffffffffffff1673ffffffffffffffffffffffffffffffffffffffff16815260200191505060405180910390f35b6101916004803603602081101561016557600080fd5b81019080803573ffffffffffffffffffffffffffffffffffffffff1690602001909291905050506102c0565b005b6101dd600480360360808110156101a957600080fd5b810190808035906020019092919080359060200190929190803590602001909291908035906020019092919050505061046c565b6040518084151515158152602001838152602001828152602001935050505060405180910390f35b6102316004803603602081101561021b57600080fd5b81019080803590602001909291905050506107ff565b60405180848152602001838152602001828152602001935050505060405180910390f35b600080600061026884426001600061046c565b9250925092509193909250565b600160009054906101000a900473ffffffffffffffffffffffffffffffffffffffff1681565b6000809054906101000a900473ffffffffffffffffffffffffffffffffffffffff1681565b600073ffffffffffffffffffffffffffffffffffffffff16600160009054906101000a900473ffffffffffffffffffffffffffffffffffffffff1673ffffffffffffffffffffffffffffffffffffffff1614610384576040517f08c379a000000000000000000000000000000000000000000000000000000000815260040180806020018281038252600b8152602001807f416c72656164792053657400000000000000000000000000000000000000000081525060200191505060405180910390fd5b80600160006101000a81548173ffffffffffffffffffffffffffffffffffffffff021916908373ffffffffffffffffffffffffffffffffffffffff16021790555080600360006101000a81548173ffffffffffffffffffffffffffffffffffffffff021916908373ffffffffffffffffffffffffffffffffffffffff1602179055507f5c6c85f31e475f047482022539bfe2a3941c15e582053b7420f22e5e8cc5d7f681604051808273ffffffffffffffffffffffffffffffffffffffff1673ffffffffffffffffffffffffffffffffffffffff16815260200191505060405180910390a150565b600080600080600260009054906101000a900473ffffffffffffffffffffffffffffffffffffffff1673ffffffffffffffffffffffffffffffffffffffff166346eee1c4896040518263ffffffff1660e01b81526004018082815260200191505060206040518083038186803b1580156104e557600080fd5b505afa1580156104f9573d6000803e3d6000fd5b505050506040513d602081101561050f57600080fd5b8101908080519060200190929190505050905060008111156107e257600085820390505b86868303018110156107e0576000600260009054906101000a900473ffffffffffffffffffffffffffffffffffffffff1673ffffffffffffffffffffffffffffffffffffffff166377fbb6638b600185036040518363ffffffff1660e01b8152600401808381526020018281526020019250505060206040518083038186803b1580156105bf57600080fd5b505afa1580156105d3573d6000803e3d6000fd5b505050506040513d60208110156105e957600080fd5b8101908080519060200190929190505050905060008511801561060b57508881115b1561062257600185859550955095505050506107f5565b6000811180156106325750888111155b80156106f7575060001515600260009054906101000a900473ffffffffffffffffffffffffffffffffffffffff1673ffffffffffffffffffffffffffffffffffffffff16633df0777b8c846040518363ffffffff1660e01b8152600401808381526020018281526020019250505060206040518083038186803b1580156106b857600080fd5b505afa1580156106cc573d6000803e3d6000fd5b505050506040513d60208110156106e257600080fd5b81019080805190602001909291905050501515145b156107d257600260009054906101000a900473ffffffffffffffffffffffffffffffffffffffff1673ffffffffffffffffffffffffffffffffffffffff166393fa49158b836040518363ffffffff1660e01b8152600401808381526020018281526020019250505060206040518083038186803b15801561077757600080fd5b505afa15801561078b573d6000803e3d6000fd5b505050506040513d60208110156107a157600080fd5b81019080805190602001909291905050509450809350828214156107d157600185859550955095505050506107f5565b5b508080600101915050610533565b505b6000806000819150809050935093509350505b9450945094915050565b600080600080600360009054906101000a900473ffffffffffffffffffffffffffffffffffffffff1673ffffffffffffffffffffffffffffffffffffffff1663c4e9e950866040518263ffffffff1660e01b81526004018082815260200191505060206040518083038186803b15801561087857600080fd5b505afa15801561088c573d6000803e3d6000fd5b505050506040513d60208110156108a257600080fd5b810190808051906020019092919050505090506000600360009054906101000a900473ffffffffffffffffffffffffffffffffffffffff1673ffffffffffffffffffffffffffffffffffffffff166373b33318876040518263ffffffff1660e01b81526004018082815260200191505060206040518083038186803b15801561092a57600080fd5b505afa15801561093e573d6000803e3d6000fd5b505050506040513d602081101561095457600080fd5b810190808051906020019092919050505090506000821115610b2057600080600061098385426001600061046c565b8093508194508295505050508215610a585783820281600360009054906101000a900473ffffffffffffffffffffffffffffffffffffffff1673ffffffffffffffffffffffffffffffffffffffff166367cfa3f860016040518263ffffffff1660e01b81526004018082815260200191505060206040518083038186803b158015610a0d57600080fd5b505afa158015610a21573d6000803e3d6000fd5b505050506040513d6020811015610a3757600080fd5b81019080805190602001909291905050509750975097505050505050610be1565b600080600360009054906101000a900473ffffffffffffffffffffffffffffffffffffffff1673ffffffffffffffffffffffffffffffffffffffff166367cfa3f860026040518263ffffffff1660e01b81526004018082815260200191505060206040518083038186803b158015610acf57600080fd5b505afa158015610ae3573d6000803e3d6000fd5b505050506040513d6020811015610af957600080fd5b81019080805190602001909291905050508292508191509750975097505050505050610be1565b600080600360009054906101000a900473ffffffffffffffffffffffffffffffffffffffff1673ffffffffffffffffffffffffffffffffffffffff166367cfa3f860006040518263ffffffff1660e01b81526004018082815260200191505060206040518083038186803b158015610b9757600080fd5b505afa158015610bab573d6000803e3d6000fd5b505050506040513d6020811015610bc157600080fd5b810190808051906020019092919050505082925081915094509450945050505b919390925056fea165627a7a72305820f6a74b86bcec1bfa6ca57cd3ef451cc46cb9bcc1a559f7d7a6690038514e6a1f0029",
  "source": "pragma solidity ^0.5.0;\r\n\r\nimport \"../contracts/testContracts/TellorMaster.sol\";\r\nimport \"../contracts/libraries/TellorLibrary.sol\";//imported for testing ease\r\nimport \"../contracts/testContracts/Tellor.sol\";//imported for testing ease\r\nimport \"./OracleIDDescriptions.sol\";\r\nimport \"../contracts/interfaces/EIP2362Interface.sol\";\r\n\r\n/**\r\n* @title UserContract\r\n* This contracts creates for easy integration to the Tellor System\r\n* by allowing smart contracts to read data off Tellor\r\n*/\r\ncontract UsingTellor is EIP2362Interface{\r\n    address payable public tellorStorageAddress;\r\n    address public oracleIDDescriptionsAddress;\r\n    TellorMaster _tellorm;\r\n    OracleIDDescriptions descriptions;\r\n\r\n    event NewDescriptorSet(address _descriptorSet);\r\n\r\n    /*Constructor*/\r\n    /**\r\n    * @dev the constructor sets the storage address and owner\r\n    * @param _storage is the TellorMaster address\r\n    */\r\n    constructor(address payable _storage) public {\r\n        tellorStorageAddress = _storage;\r\n        _tellorm = TellorMaster(tellorStorageAddress);\r\n    }\r\n\r\n    /*Functions*/\r\n    /*\r\n    * @dev Allows the owner to set the address for the oracleID descriptors\r\n    * used by the ADO members for price key value pairs standarization\r\n    * _oracleDescriptors is the address for the OracleIDDescriptions contract\r\n    */\r\n    function setOracleIDDescriptors(address _oracleDescriptors) external {\r\n        require(oracleIDDescriptionsAddress == address(0), \"Already Set\");\r\n        oracleIDDescriptionsAddress = _oracleDescriptors;\r\n        descriptions = OracleIDDescriptions(_oracleDescriptors);\r\n        emit NewDescriptorSet(_oracleDescriptors);\r\n    }\r\n\r\n    /**\r\n    * @dev Allows the user to get the latest value for the requestId specified\r\n    * @param _requestId is the requestId to look up the value for\r\n    * @return bool true if it is able to retreive a value, the value, and the value's timestamp\r\n    */\r\n    function getCurrentValue(uint256 _requestId) public view returns (bool ifRetrieve, uint256 value, uint256 _timestampRetrieved) {\r\n        return getDataBefore(_requestId,now,1,0);\r\n    }\r\n\r\n    /**\r\n    * @dev Allows the user to get the latest value for the requestId specified using the\r\n    * ADO specification for the standard inteface for price oracles\r\n    * @param _bytesId is the ADO standarized bytes32 price/key value pair identifier\r\n    * @return the timestamp, outcome or value/ and the status code (for retreived, null, etc...)\r\n    */\r\n    function valueFor(bytes32 _bytesId) external view returns (int value, uint256 timestamp, uint status) {\r\n        uint _id = descriptions.getTellorIdFromBytes(_bytesId);\r\n        int n = descriptions.getGranularityAdjFactor(_bytesId);\r\n        if (_id > 0){\r\n            bool _didGet;\r\n            uint256 _returnedValue;\r\n            uint256 _timestampRetrieved;\r\n            (_didGet,_returnedValue,_timestampRetrieved) = getDataBefore(_id,now,1,0);\r\n            if(_didGet){\r\n                return (int(_returnedValue)*n,_timestampRetrieved, descriptions.getStatusFromTellorStatus(1));\r\n            }\r\n            else{\r\n                return (0,0,descriptions.getStatusFromTellorStatus(2));\r\n            }\r\n        }\r\n        return (0, 0, descriptions.getStatusFromTellorStatus(0));\r\n    }\r\n\r\n    /**\r\n    * @dev Allows the user to get the first value for the requestId before the specified timestamp\r\n    * @param _requestId is the requestId to look up the value for\r\n    * @param _timestamp before which to search for first verified value\r\n    * @param _limit a limit on the number of values to look at\r\n    * @param _offset the number of values to go back before looking for data values\r\n    * @return bool true if it is able to retreive a value, the value, and the value's timestamp\r\n    */\r\n    function getDataBefore(uint256 _requestId, uint256 _timestamp, uint256 _limit, uint256 _offset)\r\n        public\r\n        view\r\n        returns (bool _ifRetrieve, uint256 _value, uint256 _timestampRetrieved)\r\n    {\r\n        uint256 _count = _tellorm.getNewValueCountbyRequestId(_requestId);\r\n        if (_count > 0) {\r\n            for (uint256 i = _count - _offset; i < _count -_offset + _limit; i++) {\r\n                uint256 _time = _tellorm.getTimestampbyRequestIDandIndex(_requestId, i - 1);\r\n                if(_value > 0 && _time > _timestamp){\r\n                    return(true, _value, _timestampRetrieved);\r\n                }\r\n                else if (_time > 0 && _time <= _timestamp && _tellorm.isInDispute(_requestId,_time) == false) {\r\n                    _value = _tellorm.retrieveData(_requestId, _time);\r\n                    _timestampRetrieved = _time;\r\n                    if(i == _count){\r\n                        return(true, _value, _timestampRetrieved);\r\n                    }\r\n                }\r\n            }\r\n        }\r\n        return (false, 0, 0);\r\n    }\r\n}\r\n",
  "sourcePath": "usingtellor/contracts/UsingTellor.sol",
  "compiler": {
    "name": "solc",
    "version": "0.5.8+commit.23d335f2.Emscripten.clang"
  },
  "schemaVersion": "3.0.11",
  "updatedAt": "2020-08-12T21:10:45.936Z",
  "devdoc": {
    "methods": {
      "constructor": {
        "details": "the constructor sets the storage address and owner\r",
        "params": {
          "_storage": "is the TellorMaster address\r"
        }
      },
      "getCurrentValue(uint256)": {
        "details": "Allows the user to get the latest value for the requestId specified\r",
        "params": {
          "_requestId": "is the requestId to look up the value for\r"
        },
        "return": "bool true if it is able to retreive a value, the value, and the value's timestamp\r"
      },
      "getDataBefore(uint256,uint256,uint256,uint256)": {
        "details": "Allows the user to get the first value for the requestId before the specified timestamp\r",
        "params": {
          "_limit": "a limit on the number of values to look at\r",
          "_offset": "the number of values to go back before looking for data values\r",
          "_requestId": "is the requestId to look up the value for\r",
          "_timestamp": "before which to search for first verified value\r"
        },
        "return": "bool true if it is able to retreive a value, the value, and the value's timestamp\r"
      },
      "valueFor(bytes32)": {
        "details": "Allows the user to get the latest value for the requestId specified using the\r ADO specification for the standard inteface for price oracles\r",
        "params": {
          "_bytesId": "is the ADO standarized bytes32 price/key value pair identifier\r"
        },
        "return": "the timestamp, outcome or value/ and the status code (for retreived, null, etc...)\r"
      }
    },
    "title": "UserContract\r This contracts creates for easy integration to the Tellor System\r by allowing smart contracts to read data off Tellor\r"
  },
  "userdoc": {
    "methods": {}
  }
}